:020000040800F2
:100000001806002065010008D5040008B3040008A4
:10001000D3040008E1020008690E00080000000097
:10002000000000000000000000000000A10800081F
:10003000E302000800000000BD060008250B0008D0
:100040007B0100087B0100087B0100087B010008A0
:100050007B0100087B0100087B0100087B01000890
:100060007B0100087B0100087B0100087B01000880
:100070007B0100087B0100087B0100087B01000870
:100080007B0100087B0100087B0100087B01000860
:100090007B0100087B0100087B0100087B01000850
:1000A0007B0100087B0100087B0100087B01000840
:1000B0007B0100087B0100087B0100087B01000830
:1000C0007B0100087B0100087B0100087B01000820
:1000D0007B010008350B00087B0100087B0100084C
:1000E0007B0100087B0100087B0100080000000084
:1000F0000000000000000000000000000000000000
:1001000000000000000000007B0100087B010008E7
:100110007B0100087B0100087B0100087B010008CF
:100120007B0100087B0100087B0100087B010008BF
:100130007B0100087B0100087B0100087B010008AF
:100140007B0100087B0100087B0100087B0100089F
:10015000DFF80CD000F02AF800480047A91000088A
:100160001806002005480047FEE7FEE7FEE7FEE729
:10017000FEE7FEE7FEE7FEE7FEE7FEE751010008C7
:1001800030B50B46014600202022012409E021FA67
:1001900002F59D4205D303FA02F5491B04FA02F564
:1001A0002844151EA2F10102F1DC30BD064C074DBA
:1001B00006E0E06840F0010394E807009847103437
:1001C000AC42F6D3FFF7C8FF84120008A41200085F
:1001D00070B58C1810F8015B15F0030201D110F80E
:1001E000012B2B1106D110F8013B03E010F8016B35
:1001F00001F8016B521EF9D1B3B110F8012B05F0D3
:100200000C058A1A0C2D04D0A2EB851203F102030F
:1002100008E010F8015BA2EB0522F7E712F8015B9A
:1002200001F8015B5B1EF9D5A142D3D3002070BD5C
:1002300070B504460D461646EE2000F033FBB120A3
:1002400000F030FB232000F02DFB200A00F02AFBF9
:10025000E0B200F027FB280A00F024FBE8B200F02F
:1002600021FB304600F01EFBBDE8704000F030BBC3
:1002700070B504460D46EE2000F014FBB12000F0EE
:1002800011FB202000F00EFB200A00F00BFBE0B277
:1002900000F008FB280A00F005FBE8B200F002FBC2
:1002A000BDE8704000F014BB70B504460D46EE206A
:1002B00000F0F8FAB12000F0F5FA212000F0F2FA8F
:1002C000200A00F0EFFAE0B200F0ECFA280A00F0A1
:1002D000E9FAE8B200F0E6FABDE8704000F0F8BADA
:1002E000FEE7704704490A6822F010020A600A68B3
:1002F00002430A607047000000200240034A116870
:1003000001F03801014311607047000000200240F5
:100310002DE9F041CB78002503F00F02DB0601D573
:100320008B781A430B884FF00F0813F0FF0F4FF034
:10033000010C1CD0D0F800400E880CFA05F31E40CA
:100340009E4210D1AF0008FA07F624EA060602FA28
:1003500007F43443CE78282E02D0482E02D002E093
:10036000436100E003616D1C082DE5D304600B8838
:10037000FF2B1DD94468002505F108060CFA06F389
:100380000E881E409E420FD1AF0008FA07F624EAFD
:10039000060602FA07F43443CE78282E00D14361D2
:1003A000CE78482E00D103616D1C082DE4D3446043
:1003B000BDE8F08170B504460D46EE2000F072FAFB
:1003C000B12000F06FFA112000F06CFA200A00F062
:1003D00069FAE0B200F066FA280A00F063FAE8B2BF
:1003E00000F060FABDE8704000F072BA10B5EE207F
:1003F00000F058FAB12000F055FA012000F052FA4E
:10040000BDE8104000F064BA2DE9F04104460D4605
:1004100017461E46EE2000F045FAB12000F042FAE1
:10042000302000F03FFA200A00F03CFAE0B200F081
:1004300039FA280A00F036FAE8B200F033FA384602
:1004400000F030FA300A00F02DFAF0B200F02AFA8B
:10045000BDE8F04100F03CBA2DE9F04105460E46FA
:1004600017469846EE20069C00F01CFAB12000F0DA
:1004700019FA352000F016FA280A00F013FAE8B24B
:1004800000F010FA300A00F00DFAF0B200F00AFAAB
:10049000384600F007FA200A00F004FAE0B200F053
:1004A00001FA2146404600F022FABDE8F04100F092
:1004B0000FBAFEE708B54FF4C06000F03FF8252002
:1004C0008DF8000001208DF80100684600F004F866
:1004D00008BDFEE77047000070B50F21C4780278B0
:1004E00001234FF0E026DCB1124C246804F4E064F0
:1004F000C4F5E064250AC5F10404E9404578A54047
:1005000084780C402C4321010B4C1155007800F0ED
:100510001F018B40400906EB8000C0F8003170BD20
:1005200002F01F008340500906EB8000C0F88031C4
:1005300070BD00000CED00E000E400E0024908435B
:1005400002490860704700000000FA050CED00E069
:1005500010B5B0F80310314A49BA1180B0F805005F
:1005600040BA5080E9B1022957D103282BD0042882
:100570003ED0062851D100220421022000F0DEF9ED
:1005800000220321022000F0D9F9022100220846AE
:1005900000F09BFA02220121BDE810400220FFF783
:1005A00047BE012809D0032837D10022BDE81040FA
:1005B0004FF478430121FFF727BF0221BDE8104027
:1005C0000120FFF7F7BE02210122084600F07DFA64
:1005D000012211460220FFF72BFE002204210220F7
:1005E00000F0ACF902210846FFF742FE0122D2E7F3
:1005F00002210122084600F068FA002201210220AF
:10060000FFF716FE00220321022000F097F90221D5
:10061000BDE810400846FFF747BE10BD00000020AF
:100620008168C27A09BA21F0FF011143B0F80320B2
:10063000094B52BA052A1A80B0F8050040BA588012
:1006400009D1022807D14800FF21B0FBF1F201FBDC
:10065000120000F064B970470000002030B5B0F817
:10066000033087B05DBA124B002211461D80B0F8EE
:100670000540012D64BA5C8017D1022C15D16FF0B2
:100680002F0443181B7A33B102EB820204EB4202BF
:100690001A44491CF5E7520806A1684600F0E6FB3B
:1006A0006A460521012000F0BFF907B030BD000007
:1006B000000000202564B7FCCCD800007047000083
:1006C000044A0029116901D0014300E0814311610E
:1006D0007047000000100240044A0029916901D0CF
:1006E000014300E081439161704700000010024027
:1006F000044A0029D16801D0014300E08143D16060
:1007000070470000001002400C48016841F00101F0
:10071000016041680A4A114041600168094A11407C
:100720000160016821F480210160416821F4FE012B
:1007300041604FF41F0181607047000000100240CB
:100740000000FFF8FFFFF6FE224910B54A6812F0DC
:100750000C03214A03D0042B01D0082B26D00260C1
:100760004A681E4B02F0F00212099C5C0268E240EB
:1007700042604C6804F4E064240A1C5D22FA04F42C
:1007800084604C6804F460544FEAD4241B5D22FA60
:1007900003F2C2604968114B01F440414FEA9131C4
:1007A0001B1F595CB2FBF1F1016110BD4A684B6837
:1007B00002F470124FF0020413F4803F04EB9242F3
:1007C00002D04B689B0301D5054B00E0024B5A4316
:1007D000C5E700000010024000127A00300100203E
:1007E00000093D000246002053090949012B0BD0A6
:1007F000022B0BD0D1F8241002F01F0201239340EA
:100800000B4200D0012070470968F5E7096AF3E759
:10081000001002400248406800F00C0070470000E1
:1008200000100240034A516821F0F0010143516079
:100830007047000000100240014908607047000046
:1008400000004242034A516821F4E06101435160D3
:10085000704700000010024003494A6822F46052C9
:1008600042EAC00048607047001002400149086633
:100870007047000000004242034A5368084323F4D3
:100880007C1318435060704700100240034A5168BF
:1008900021F0030101435160704700000010024045
:1008A0007047000010B5094C0146204600F022FABE
:1008B0008021204600F096F90028F9D040212046FA
:1008C00000F090F90028F9D010BD00000038014078
:1008D00010B5FF20FFF7E6FFFC20FFF7E3FFFF2046
:1008E000FFF7E0FFBDE81040FF20FFF7DBBF70B56A
:1008F00006460D46002404E0305DFFF7D3FF641C7C
:10090000A4B2AC42F8D370BD10B5044603E000BFFA
:10091000FFF7C8FF641C20780028F9D110BD10B57E
:100920000446EE20FFF7BEFF6020FFF7BBFF204626
:10093000FFF7B8FFBDE81040FFF7CABF70B5044627
:100940000D461646EE20FFF7ADFFB120FFF7AAFFD8
:100950001020FFF7A7FF200AFFF7A4FFE0B2FFF780
:10096000A1FF280AFFF79EFFE8B2FFF79BFF304682
:10097000FFF798FFBDE87040FFF7AABF70B50546C6
:100980000E461446EE20FFF78DFFB120FFF78AFFD9
:100990001020FFF787FF280AFFF784FFE8B2FFF770
:1009A00081FF300AFFF77EFFF0B2FFF77BFF200EDA
:1009B000FFF778FFC4F30740FFF774FFC4F3072085
:1009C000FFF770FFE0B2FFF76DFFBDE87040FFF783
:1009D0007FBF70B505460E461446EE20FFF762FF56
:1009E000B120FFF75FFF1020FFF75CFF280AFFF739
:1009F00059FFE8B2FFF756FF300AFFF753FFF0B296
:100A0000FFF750FF200EFFF74DFFC4F30740FFF73D
:100A100049FFC4F30720FFF745FFE0B2FFF742FFAD
:100A2000BDE87040FFF754BF70B504460D4616464A
:100A3000EE20FFF737FFB120FFF734FF1020FFF75C
:100A400031FF200AFFF72EFFE0B2FFF72BFF280A45
:100A5000FFF728FFE8B2FFF725FF3046FFF754FF06
:100A6000BDE87040FFF734BF10B5FFF74DFE012021
:100A7000FFF7E2FE2120FFF7B5FE0028FAD0102094
:100A8000FFF730FC0220FFF739FC0020FFF7CAFE19
:100A90000020FFF7E1FE4FF48060FFF7D3FE4FF434
:100AA00020110020FFF7E8FE0120FFF7DFFE3920CC
:100AB000FFF798FE0028FAD00220FFF7E7FE00BFFC
:100AC000FFF7A8FE0828FBD110BD70B504460D46FF
:100AD0001646EE20FFF7E6FEB120FFF7E3FE032007
:100AE000FFF7E0FE200AFFF7DDFEE0B2FFF7DAFED7
:100AF000280AFFF7D7FEE8B2FFF7D4FE3046FFF72B
:100B0000D1FEBDE87040FFF7E3BE4FF0E0210428BE
:100B1000086903D020F004000861704740F0040029
:100B2000FAE7000002480168491C016070470000B4
:100B30000800002010B5084C40F22551204600F076
:100B400058F8002807D0204600F0D0F8BDE8104043
:100B5000C0B200F063BB10BD00380140002981899C
:100B600002D041F4005101E021F40051818170472D
:100B7000174910B588420AD101218C032046FFF79E
:100B8000B7FD2046BDE810400021FFF7B1BD114977
:100B9000884202D101214C0410E00F49884202D161
:100BA00001218C040AE00D49884202D10121CC04C4
:100BB00004E00B4988420AD101210C052046FFF7C9
:100BC0007FFD2046BDE810400021FFF779BD10BD34
:100BD000003801400044004000480040004C004004
:100BE000005000400246002012880A4200D0012036
:100BF000704770B501F01F0601220025C1F34213B2
:100C000002FA06F4012B0FD0022B0FD0838A4FEA91
:100C100011210088234202FA01F200EA020001D009
:100C200000B10125284670BD8389F0E7038AEEE70D
:100C300010B5C1F3421301F01F040121A140012BA3
:100C400007D0022B07D01430002A026805D00A43CF
:100C500004E00C30F8E71030F6E78A43026010BD7C
:100C600030B50446008A85B00D464CF6FF71084049
:100C7000E98801432182A1894EF6F3100140A8883A
:100C80002A8910436A890A431043A081A08A4FF63B
:100C9000FF410840A9890143A1826846FFF754FD3E
:100CA0001148844201D1039800E00298642200EBCD
:100CB000C00101EB001029686FF018058900B0FB36
:100CC000F1F0B0FBF2F109010B096B4300EB83007B
:100CD000322303EB0010B0FBF2F000F00F000843EA
:100CE000208105B030BD0000003801408088C0F38D
:100CF00008007047C1F308018180704730B5044691
:100D000085B001210520FFF7E7FC01218803FFF7EB
:100D1000E3FC4FF40070ADF8100018208DF81300BC
:100D20000320194D8DF8120004A92846FFF7F0FAA8
:100D30002815ADF8100004208DF8130004A92846EA
:100D4000FFF7E6FA114D2846FFF712FF0020ADF835
:100D50000400ADF80600ADF80800ADF80C000C205A
:100D6000ADF80A00009469462846FFF779FF012292
:100D700040F225512846FFF75BFF01212846FFF787
:100D8000EDFE05B030BD0000000801400038014014
:100D90007FB5324C21680A20B1FBF0F1B1FBF0F2D3
:100DA00000FB121130318DF804102E218DF8051042
:100DB0002168B1FBF0F200FB121031308DF8060013
:100DC000FFF714FB26480188012913D00188032965
:100DD00020D00188642504292DD00088052808D159
:100DE0002068B0FBF5F105FB110201210520FFF79A
:100DF000F0FD7FBD01AA06210120FFF715FE01AA23
:100E000007210120FFF710FE01AA08210120FFF7AA
:100E10000BFE7FBD8024134B002201210320009490
:100E2000FFF71AFB0F4B002290330121032000949F
:100E3000FFF712FB7FBD2068B0FBF5F105FB110247
:100E400001210420FFF79AFD2068B0FBF5F105FBB6
:100E5000110202210420FFF791FD7FBD0800002050
:100E6000040000200C000020FEE700000FB4084B37
:100E700010B504A902AA039800F01CF8044602A9C0
:100E8000002000F0BFF8204610BC5DF814FB000005
:100E90000510000802E008C8121F08C1002AFAD194
:100EA00070477047002001E001C1121F002AFBD1EA
:100EB000704700002DE9FF4F89B004469B4600258E
:100EC00096E0252833D10027641C4D4AB8460121FD
:100ED0002378203B01FA03F0104202D00743641C40
:100EE000F6E720782E2819D114F8010F47F00407EF
:100EF0002A280ED06FF02F022078A0F130010929A6
:100F00000CD808EB880102EB410100EB0108641CDE
:100F1000F2E70A98641C50F8048B0A9020780028A5
:100F20006AD0642808D0692806D075281FD05A4690
:100F30000B9990476D1C5AE00A994FF00A0901C9B4
:100F40000A91002804DAC0F100004FF02D0102E000
:100F5000390504D52B218DF82010012104E0F90773
:100F600001D02021F7E700218A4608AE0CE00A995B
:100F70004FF00A0901C90A91F5E74946FFF700F960
:100F800001F1300106F8011D0028F6D1ADEB060095
:100F900000F12009780701D44FF00108C84502DDAF
:100FA000A8EB090000E000208046002706E008A822
:100FB0005A46C05D0B9990476D1C7F1C5745F6DB68
:100FC00004E030205A460B9990476D1CB8F100019F
:100FD000A8F10108F5DC05E016F8010B5A460B995B
:100FE00090476D1CB9F10001A9F10109F4DC641C02
:100FF000207800287FF465AF0DB02846BDE8F08F5B
:10100000092801000A68531C0B601070704700002B
:1010100004490A680A23B0FBF3F00B689B1A984254
:10102000FBD270470800002010B5012116A2084627
:10103000FFF7FAFC15A202210120FFF7F5FC14A22C
:1010400003210120FFF7F0FC12A205210120FFF788
:10105000EBFC12A206210120FFF7E6FC10A20721FB
:101060000120FFF7E1FC0FA208210120FFF7DCFCC3
:10107000012203210220FFF761FC0122BDE810409C
:1010800011460220FFF7D4B832000000323530009C
:1010900038300000313235B7FCCCD800312E360064
:1010A00034300000353000000125FFF7DDFCFFF78C
:1010B00001FA00F0D1F84FF4E130FFF71FFE00F025
:1010C000BFF84FF49670FFF7A3FFFFF7ADFF234C77
:1010D0000A26A068B0FBF6F106FB110020B91DB18D
:1010E0000025FFF755FE07E0A068B0FBF6F106FB10
:1010F0001100012800D101258021194800F032F8A3
:101100000100E6D016484278012AE2D0032AE0D056
:10111000B12ADED18278012A0ED0112AD9D1C27922
:10112000122AD6D00DDC012A10D0102A12D0112A92
:10113000CFD1FFF793FACCE7B0F8030040BAA08014
:10114000C7E7132AC5D1FFF76BFAC2E7B0F803204F
:1011500052BAA280FFF7FCF9BBE7000000000020B4
:10116000440100202DE9F04782462B48002789469C
:1011700039464FF00208DFF89CC05024038839E05C
:101180009A4208D02449091D515C521CB2FBF4F567
:1011900004FB15224280BCF8022012B9CDB2EE2D1C
:1011A00028D14A4504D20AF80210521CACF8022099
:1011B000CAB2FF2A02D0FC2A14D019E09CF8002001
:1011C000022A03D0032A05D0012200E003228CF872
:1011D00000200FE0BCF802008CF80070ACF8027040
:1011E000BDE8F0879CF80020012A0FD0032A0DD01B
:1011F0008CF8007042889D1A503595FBF4F604FB7C
:1012000016552D042D0CBBD10020E9E78CF8008089
:10121000F0E7000040010020C401002030B5074B7A
:1012200050241A88511CB1FBF4F504FB15115C889D
:101230008C4202D01C1D1055198030BDC401002005
:1012400003490020488008800249087048807047A0
:10125000C40100204001002010B56FF00400FFF72A
:1012600054FC4FF0E02005494161054AF02111701E
:10127000002181610721016110BD0000FF520700BC
:1012800023ED00E0A412000800000020440100004B
:10129000D00100084013000844010020D4040000DD
:1012A000A40E00089200012038F5F2F0ECE9E6E225
:1012B000DED9D5D0CBC6C1BBB6B0AAA49E98928CBD
:1012C000868079736D67615B554F49443E39342F91
:1012D0002A26211D1916130F0D0A08060403020100
:1012E00001203D02030406080A0D0F1316191D21E3
:1012F000262A2F34393E44494F555B61676D737917
:101300007F868C92989EA4AAB0B6BBC1C6CBD0D51E
:10131000D9DEE2E6E9ECF0F2F5F7F9FBFCFDFE01BF
:10132000E006FDFCFBF9F780016E70051E0012025D
:10133000E4252821EE31F2240407080940000000CA
:04000005080001519D
:00000001FF
