:100000000208BCFE7C007D280200B202100C75982C
:1000100050438920438780758DFF758BFF43A890DF
:10002000D28E22020D14BB010689828A83E02250FF
:1000300002E722BBFE02E32289828A83E49322BB89
:10004000010CE58229F582E5833AF583E02250062A
:10005000E92582F8E622BBFE06E92582F8E222E5E0
:100060008229F582E5833AF583E49322BB01068970
:10007000828A83F0225002F722BBFE01F322F8BBF2
:10008000010DE58229F582E5833AF583E8F02250F7
:1000900006E92582C8F622BBFE05E92582C8F222C0
:1000A000EF8DF0A4A8F0CF8CF0A428CE8DF0A42E74
:1000B000FE22BC000BBE0029EF8DF084FFADF022C4
:1000C000E4CCF875F008EF2FFFEE33FEEC33FCEED6
:1000D0009DEC984005FCEE9DFE0FD5F0E9E4CEFDC9
:1000E00022EDF8F5F0EE8420D21CFEADF075F0089C
:1000F000EF2FFFED33FD4007985006D5F0F222C3F5
:1001000098FD0FD5F0EA22BB0110E58229F582E5C2
:10011000833AF583E0F5F0A3E0225009E92582F85F
:1001200086F008E622BBFE0AE92582F8E2F5F0082F
:10013000E222E5832AF583E993F5F0A3E99322759A
:10014000F008758200EF2FFFEE33FECD33CDCC33B8
:10015000CCC58233C5829BED9AEC99E58298400C20
:10016000F582EE9BFEED9AFDEC99FC0FD5F0D6E4FE
:10017000CEFBE4CDFAE4CCF9A88222B800C1B900E4
:1001800059BA002DEC8BF084CFCECDFCE5F0CBF945
:100190007818EF2FFFEE33FEED33FDEC33FCEB333D
:1001A000FB10D703994004EB99FB0FD8E5E4F9FA6B
:1001B000227818EF2FFFEE33FEED33FDEC33FCC950
:1001C00033C910D7059BE99A4007EC9BFCE99AF9E3
:1001D0000FD8E0E4C9FAE4CCFB2275F010EF2FFF52
:1001E000EE33FEED33FDCC33CCC833C810D7079BBC
:1001F000EC9AE899400AED9BFDEC9AFCE899F80F1F
:10020000D5F0DAE4CDFBE4CCFAE4C8F922EB9FF5B3
:10021000F0EA9E42F0E99D42F0E89C45F022E86059
:100220000FECC313FCED13FDEE13FEEF13FFD8F13B
:100230002232003235300038300031323500312E74
:100240003600343000353000F5F2F0ECE9E6E2DE5D
:10025000D9D5D0CBC6C1BBB6B0AAA49E98928C8685
:100260008079736D67615B554F49443E39342F2A5D
:1002700026211D1916130F0D0A0806040302010199
:1002800001010102030406080A0D0F1316191D21AE
:10029000262A2F34393E44494F555B61676D737987
:1002A0007F868C92989EA4AAB0B6BBC1C6CBD0D58F
:1002B000D9DEE2E6E9ECF0F2F5F7F9FBFCFDFEFE33
:1002C000FEFEFEFDFCFBF9F7F5F2F0ECE9E6E2DEFE
:1002D000D9D5D0CBC6C1BBB64F49443E39342F2AFD
:1002E00026211D1916130F0D0A0806040302010129
:1002F00001010102030406080A0D0F1316191D213E
:10030000262A2F34393E44494F555B61676D737916
:100310007F868C92989EA4AAB0B6BBC1C6CBD0D51E
:10032000D9DEE2E6E9ECF0F2F5F7F9FBFCFDFEFEC2
:10033000FEFEFEFDFCFBF9F7F5F2F0ECE9E6E2DE8D
:10034000D9D5D0CBC6C1BBB6F5F2F0ECE9E6E2DE1A
:10035000D9D5D0CBC6C1BBB6B0AAA49E98928C8684
:100360008079736D67615B55E47896F608F608F658
:10037000753701F538F53908F608F608F612109BBE
:1003800012000E12107B7F2C7E017D007C00120C6F
:100390007D120948120881ED4C700CE5376008E4C5
:1003A000F53712069B800C120881ED64014C700336
:1003B0007537017B007A0079667D287C001207730F
:1003C0008E388F39D3E5399400E538940040C57BE9
:1003D000007A0079667899A60308A60208A6011299
:1003E00008A57896F624FD60082452601E24B0709B
:1003F000A37868E6FE08E6FDEEFC08E6FE08E6FBEC
:10040000EEFA7867E6FF1210A980899000021208C0
:100410008F7897F624EF601124106003020394ADE7
:1004200039AC38120FED02039490000712088F7850
:1004300098F614602B24DB605B2416B4050040039F
:1004400002039490045175F003A4C58325F0C5837D
:100450007302046702047002047902048202048BAE
:10046000AD39AC38120FED12085612049D020394F8
:1004700012085612059F020394120856120A4502EA
:1004800003941208561209C8020394120856120A5D
:10049000AB020394120856120B0B0203948B3A8A98
:1004A0003B893C8C3D8D3E90000812003FF53F900B
:1004B000000912003FF540E9240312082EAA3BA9C7
:1004C0003C12081EAB3AAA3BA93C1208657891E69B
:1004D000184670127893E66401184670097D02FC94
:1004E0007F01FE020EBD7891E6184670187893E6FB
:1004F00064031846700F7546F8F547FB7D01FC7FD5
:1005000003FE020CCD12089C70197893E664031860
:100510004670101205877B011205937D0412057544
:10052000020EEF12089C701C7893E6640418467063
:10053000131205877D011208AB120E4B7D031205C5
:1005400075020F2112089C702B7893E664061846FA
:100550007022FB7D04FC7F02FE120E117D03120847
:10056000AB120E11E4FB7D02FC7F02FE120DD77B65
:100570000212059322E4FBFC7F02FE120E117D02A3
:100580007C007F027E00227B017D02FC7F02FE1246
:100590000DD7227D017C007F027E00120E4B228B44
:1005A0003A8A3B893C8C3D8D3EE4F558F559F55A25
:1005B000F55BE9240312082EAA3BA93C12081EABE6
:1005C0003AAA3BA93C1208657891E6640118466096
:1005D0000302069A7893E664021846600302069ABC
:1005E000AB3A1208B2E9255BF9EA355AFA1200264D
:1005F00060321208B2055BE55BAE5A7002055A1410
:1006000029F9EA3EFA12002624D0FBE434FFFAAEC0
:1006100058AF597C007D0A1200A0EF2BF559EE3A35
:10062000F55880BCE558C313F558E55913F559AE94
:1006300058FF7C007D641200B2EF2430F53F7C004F
:100640007D641200A0C3E5599FFFE5589EFE7D0A18
:100650001200B2EF2430F540AE58AF59120888EDC1
:100660002430F541E4F542E53FB4300FE540B430C5
:100670000A85413FE4F540F541800EE53FB430097D
:1006800085403F854140E4F5417B007A00793F7D1C
:10069000057C007F017E00120D56227894E6FA0850
:1006A000E6FBFF120F747C007D0A1200B2ED2430CD
:1006B000F53A753B2EAF03120F74ED2431F53C1261
:1006C000108B788FE664011846701EFB7A00793A29
:1006D0007D06FC7F01FE120D567D07120F67120D7D
:1006E000567D08120F67020D56788FE66403184690
:1006F00070327549FF754A02754B48F54C754D804F
:10070000FB7D01FC7F03FE120C297549FF754A022F
:10071000754BD8754C00754D80E4FB7D01FC7F0363
:10072000FE020C29788FE6640418467028120F53D5
:100730008F4B8E4AF549F5487D01FC7F04FE120B74
:10074000CA120F538F4B8E4AF549F5487D02FC7F44
:1007500004FE020BCA788FE6640518467014120F67
:10076000538F4B8E4AF549F5487D01FC7F05FE12FB
:100770000B6B228B3A8A3B893C8C3D8D3EE4F53FE6
:10078000F540F54112102AD3EF9400EE9400500387
:1007900002081A7B007A007941120FA5E53645352B
:1007A0007005E541B4EEDDC3E536953EE535953D92
:1007B000501AAB3AAA3BA93C0536E536AE35700275
:1007C000053514F5828E83E54112007EE541B4FFC4
:1007D00018E50824FD600804700A75080380217577
:1007E0000804801C7508018017E541B4FC0FE5087A
:1007F00024FD6004240270057508028003E4F508F6
:10080000E5086404600302078485353F853640F5BA
:1008100008F535F536AE3FAF4022E4FEFF22FD90ED
:10082000000312003F7890F6ED08F6E924059000E9
:1008300001F9E43AFA02003FFFEE4CFCEF4DFDE90E
:100840002408F9E43AFA90000212003F4CFEEDFF52
:1008500090000302003F7899860308E6FA08E6F95B
:10086000AD39AC3822FD90000512003F7892F6EDCC
:1008700008F622FDAC0690000812003F7E007818B2
:10088000227894E6FE08E6FF7C007D0A0200B2783A
:1008900099860308E6FA08E6F902003F7891E664D3
:1008A00002184622FA90000102003FE4FBFC7F029E
:1008B000FE22E53C2408F9E4353BFA22787FE4F691
:1008C000D8FD75819B020903020368E493A3F8E451
:1008D00093A34003F68001F208DFF48029E493A398
:1008E000F85407240CC8C333C4540F4420C88340B1
:1008F00004F456800146F6DFE4800B010204081080
:10090000204080900D97E47E019360BCA3FF543F8C
:1009100030E509541FFEE493A360010ECF54C025B7
:10092000E060A840B8E493A3FAE493A3F8E493A3A7
:10093000C8C582C8CAC583CAF0A3C8C582C8CAC50B
:1009400083CADFE9DEE780BE7A0279317D011209D0
:10095000B07A0279337D021209B07A0279377D03C9
:100960001209BC7A02793A7D051209BC7BFF7A0232
:10097000793E7D06120F6D120D567BFF7A02794289
:100980007D07120F6D120D567BFF7A0279457D08A7
:10099000120F6D120D567B017D037C007F027E00DD
:1009A000120E117B017D017C007F027E00020E4B46
:1009B0007BFF7C007F017E00120D56227BFF7C00B6
:1009C0007F017E00120D56228B3A8A3B893C8C3D7A
:1009D0008D3EE9240812082E7E007810C333CE33F2
:1009E000CED8F9AB3AAA3BA93C120873C333CE3335
:1009F000CED8F9120838FDEEF53FEF4DF540AB3A91
:100A0000E53C2403F9E4353B1208A4FDAA3BA93CCC
:100A100012081FFDAB3AAA3BA93C1208667891E682
:100A200064051846701E7893E6640218467015E552
:100A30004025E0FFE53F33FE7C007DFF1200B2AFB2
:100A400005121055228B3A8A3B893C8C3D8D3EE93C
:100A5000240812082E7E007810C333CE33CED8F986
:100A6000AB3AAA3BA93C120873C333CE33CED8F9B4
:100A7000FFEE4CFCEF4DFDE9240890000212083116
:100A800012084CFDEEF53FEF4DF540AB3AE53C2446
:100A900003F9E4353B1208A4FDAA3BA93C12081F48
:100AA000FDAB3AAA3BA93C120866228B3A8A3B89E5
:100AB0003C8C3D8D3EE9240312082EFDAA3BA93C47
:100AC000120850F53FEDF54012082BFDAA3BA93C5A
:100AD00090000512003FF541EDF542E924081208A7
:100AE0002E7E007810C333CE33CED8F9FDAC06ABE2
:100AF0003AAA3BA93C120876C333CE33CED8F912BA
:100B00000838FDEEF543EF4DF544228B3A8A3B89D8
:100B10003C8C3D8D3EE9240312082EFDAA3BA93CE6
:100B2000120850F53FEDF54012082BFDAA3BA93CF9
:100B300090000512003FF541EDF542E92408120846
:100B40002E7E007810C333CE33CED8F9FDAC06AB81
:100B50003AAA3BA93C120876C333CE33CED8F91259
:100B60000838FDEEF543EF4DF544228E448F458C59
:100B7000468D471210BC7FB11210B47F101210B412
:100B8000E544FF1210B4AF45E5451210B4E546FF49
:100B90001210B4AF47E547120BBE120F7D120BBE09
:100BA000120F9E1210B4AF4BAE4AAD49AC48120FB3
:100BB000821210B4E54BFFE41210B402104112107F
:100BC000B4AF4BAE4AAD49AC48228E448F458C46FB
:100BD0008D471210BC7FB11210B47F101210B4E513
:100BE00044FF1210B4AF45E5451210B4E546FF12BC
:100BF00010B4AF47E547120C1D120F7D120C1D12E9
:100C00000F9E1210B4AF4BAE4AAD49AC48120F82E2
:100C10001210B4E54BFFE41210B40210411210B4EC
:100C2000AF4BAE4AAD49AC48228E448F458C468DC1
:100C3000478B481210BC7FB11210B47F351210B42C
:100C4000E544FF1210B4AF45E5451210B4E546FF88
:100C50001210B4AF47E5471210B4E548FF1210B4C4
:100C6000E54CFF1210B4AF4DE54D1210B4AB49AADC
:100C70004AA94BAD4DAC4C120E850210418F3D8EF2
:100C80003C8D3B8C3A7894E6FE08E6FFE48F418E7B
:100C900040F53FF53EE47B0AFAF9F8AF3DAE3CADD6
:100CA0003BAC3A12017BC006C0077894E6FE08E62A
:100CB000FFC3EF9541FBEE9540FAE4953FF9E495CB
:100CC0003EF8D007D006D312020D40C9228E418FC4
:100CD000428C438D448B451210BC7FB11210B47FFF
:100CE000301210B4E541FF1210B4AF42E5421210C9
:100CF000B4E543FF1210B4AF44E5441210B4E54527
:100D0000FF1210B4E546FF1210B4AF47E5471210CA
:100D1000B4021041C0E0C0F0C083C082C0D075D022
:100D200000C000C001C002C003C004C005C006C0AE
:100D300007309807C298AF99120FCAD007D006D0D3
:100D400005D004D003D002D001D000D0D0D082D0C2
:100D500083D0F0D0E0328E5C8F5D8C5E8D5F8B60D7
:100D60008A6189621210BC7FB11210B47F10121018
:100D7000B4E55CFF1210B4AF5DE55D1210B4E55E42
:100D8000FF1210B4AF5FE55F1210B4AB60AA61A9A7
:100D900062121068021041202C09000000000000BF
:100DA0000000000000000000000000000000000043
:100DB0000000000000000000000000000000000033
:100DC000000000000000010800023500000165007D
:100DD000016300016400008E418F428C438D448B7F
:100DE000451210BC7FB11210B47F031210B4E5415C
:100DF000FF1210B4AF42E5421210B4E543FF1210E7
:100E0000B4AF44E5441210B4E545FF1210B402102B
:100E1000418E418F428C438D448B451210BC7FB173
:100E20001210B47F101210B4E541FF1210B4AF429B
:100E3000E5421210B4E543FF1210B4AF44E544128A
:100E400010B4E545FF1210B40210418E418F428C60
:100E5000438D448B451210BC7FB11210B47F231216
:100E600010B4E541FF1210B4AF42E5421210B4E5F0
:100E700043FF1210B4AF44E5441210B4E545FF122D
:100E800010B40210418B4E8A4F89508C518D52E420
:100E9000F553F554C3E5549552E5539551501DABA8
:100EA0004EAA4FA95085548285538312003FFF12EA
:100EB00010B40554E55470DC055380D8228E418F60
:100EC000428C438D441210BC7FB11210B47F1112BA
:100ED00010B4E541FF1210B4AF42E5421210B4E580
:100EE00043FF1210B4AF44E5441210B40210418E17
:100EF000418F428C438D441210BC7FB11210B47FDD
:100F0000201210B4E541FF1210B4AF42E5421210B6
:100F1000B4E543FF1210B4AF44E5441210B402101C
:100F2000418E418F428C438D441210BC7FB1121010
:100F3000B47F211210B4E541FF1210B4AF42E54274
:100F40001210B4E543FF1210B4AF44E5441210B4DC
:100F50000210417894E6FE08E6FF7C007D641200F2
:100F6000B2AE04AF05E4227B007A00793A7C007FC0
:100F7000017E00227C007D0AAE020200B2781012CF
:100F8000021E780812021EE422E50025E0FFE500BB
:100F900033AB00AA00A9008F82F583020107781005
:100FA00012021EE422E50C650A7004E50B65096077
:100FB00018740D250CF8E612006CE50C2401FFE412
:100FC000350B1200038C0B8D0C22AB07E50A2401B4
:100FD000FFE43509120003ED650C7003EC650B604E
:100FE0000B740D250AF8A6038C098D0A228C3D8D01
:100FF0003E8B3A8A3B893CE9240312082EFDAA3B2A
:10100000A93C120850788EF6ED08F622C0E0C0D058
:1010100075D000C000758CDC758A32789506E618AC
:10102000700106D000D0D0D0E032E50A2428CFE409
:101030003509CFC3950CCF950B120003AE04AF0555
:10104000227FFF1210B47FFC1210B47FFF1210B485
:101050007FFF0210B48F411210BC7F601210B4E504
:1010600041FF1210B4021041120026FF600C121052
:10107000B4740129F9E43AFA80EE22E4F50BF50C98
:10108000F509F50AF508F535F536221210BC7FB1E1
:101090001210B47F011210B4021041758909758CC9
:1010A000DC758A32D28CD2A9228F3A8C3B8D3C8A55
:1010B0003D8B3E228F993099FDC299227FEE02101E
:0110C000B47B
:00000001FF
